:100000000C9434000C943E000C943E000C943E0082
:100010000C943E000C943E000C943E000C943E0068
:100020000C943E000C943E000C943E000C943E0058
:100030000C943E000C943E000C943E000C943E0048
:100040000C943E000C943E000C943E000C943E0038
:100050000C943E000C943E000C943E000C943E0028
:100060000C943E000C943E0011241FBECFEFD8E04C
:10007000DEBFCDBF0E9440000C9453000C940000E2
:100080008AB18B7F8AB98BB184608BB984B184606B
:1000900084B94A9904C085B1846085B9FACF85B125
:0A00A0008B7F85B9F6CFF894FFCFEF
:00000001FF
