S01D00004C45445F6272696768746E65735F636F6E74726F6C2E73726563AD
S11300000C9434000C9451000C9451000C94510045
S11300100C9451000C9451000C9451000C94510018
S11300200C9451000C9451000C9451000C94510008
S11300300C9451000C9451000C9451000C945100F8
S11300400C9451000C9451000C9451000C945100E8
S11300500C9451000C9451000C9451000C945100D8
S11300600C9451000C94510011241FBECFEFD8E022
S1130070DEBFCDBF11E0A0E0B1E0EEE3F1E002C0ED
S113008005900D92A630B107D9F721E0A6E0B1E0C2
S113009001C01D92A730B207E1F70E9480000C94C2
S11300A09D000C94000084B5836084BD84B5806891
S11300B084BD84B58F7B84BD8FE387BD85B58B7F7D
S11300C085BD85B5836085BD0895809106018F5FE8
S11300D080930601853010F010920601E09106012C
S11300E0F0E0E050FF4F808187BD08958AB18064BD
S11300F08AB98AB18B7F8AB98BB184608BB9089530
S11301000E9453000E94760081E001C08C2FC9B187
S1130110C2FBCC27C0F98130C9F7C111F7CF2FEF4B
S113012089EF90E0215080409040E1F700C000004A
S11101304A99ECCF0E946500E9CFF894FFCF06
S109013E3F7FBFFF00003B
S9030000FC
