S0150000554152545F54585F48454C4C4F2E73726563F5
S11300000C9434000C9449000C9449000C9449005D
S11300100C9449000C9449000C9449000C94490038
S11300200C9449000C9449000C9449000C94490028
S11300300C9449000C9449000C9449000C94490018
S11300400C9449000C9449000C9449000C94490008
S11300500C9449000C9449000C9449000C944900F8
S11300600C9449000C94490011241FBECFEFD8E032
S1130070DEBFCDBF11E0A0E0B1E0EAE2F1E002C0F2
S113008005900D92A630B107D9F70E944B000C944D
S113009093000C940000CF93DF9300D000D000D0E5
S11300A0CDB7DEB786E0E0E0F1E0DE011196019025
S11300B00D928A95E1F71092C50087E68093C400FB
S11300C0E2ECF0E080818F7D808380818660808394
S11300D0E1ECF0E080818860808320E030E00FC0B4
S11300E0E1E0F0E0EC0FFD1FE20FF31F808180934D
S11300F0C6008091C00085FFFCCF2F5F3F4F2530A5
S1130100310574F38091C00085FFFCCF8AE08093B1
S1130110C6002FEF83ED90E3215080409040E1F73B
S10D012000C00000DACFF894FFCF0E
S109012A48656C6C6F00D7
S9030000FC
