:100000000C9434000C943E000C943E000C943E0082
:100010000C943E000C943E000C943E000C943E0068
:100020000C943E000C943E000C943E000C943E0058
:100030000C943E000C943E000C943E000C943E0048
:100040000C943E000C943E000C943E000C943E0038
:100050000C943E000C943E000C943E000C943E0028
:100060000C943E000C943E0011241FBECFEFD8E04C
:10007000DEBFCDBF0E9440000C948F000C940000A6
:100080008AB184628AB98BB184608BB98BB18F7D60
:100090008BB92FEF8BE792E9215080409040E1F738
:1000A00000C000008BB18B7F8BB98BB180628BB9A4
:1000B0002FEF8BE792E9215080409040E1F700C09C
:1000C00000008BB18B7F8BB98BB18F7D8BB92FEFFC
:1000D0008BE792E9215080409040E1F700C000009A
:1000E0008BB184608BB98BB180628BB92FEF8BE7BA
:1000F00092E9215080409040E1F700C000008BB1B0
:100100008B7F8BB98BB18F7D8BB92FEF8BE792E90A
:10011000215080409040E1F700C00000B4CFF89437
:02012000FFCF0F
:00000001FF
