:100000000C9434000C9449000C9449000C94490061
:100010000C9449000C9449000C9449000C9449003C
:100020000C9449000C9449000C9449000C9449002C
:100030000C9449000C9449000C9449000C9449001C
:100040000C9449000C9449000C9449000C9449000C
:100050000C9449000C9449000C9449000C944900FC
:100060000C9449000C94490011241FBECFEFD8E036
:10007000DEBFCDBF11E0A0E0B1E0EAE8F8E002C0E9
:1000800005900D92A030B107D9F70E944B000C9457
:1000900043040C9400000E948D0184B18C6284B9E9
:1000A00084B18F7E84B98CB581658CBD8CB5817F20
:1000B0008CBD85B18B7F85B980ED8EBD0DB407FEFB
:1000C000FDCF8EB51EBC0DB407FEFDCF8EB585B13C
:1000D000846085B985B18B7F85B984E78EBD01C009
:1000E0008EB50DB407FEFCCF87E28EBD01C08EB584
:1000F0000DB407FEFCCF85B1846085B985B18B7FD7
:1001000085B98AEF8EBD0DB407FEFDCF8EB51EBC3E
:100110000DB407FEFDCF4EB51EBC0DB407FEFDCFDE
:100120008EB51EBC0DB407FEFDCF2EB550E060E0CD
:1001300070E0032E3CE0440F551F661F771F3A9571
:10014000D1F7302D90E0A0E0B0E0880F991FAA1FF2
:10015000BB1F880F991FAA1FBB1F880F991FAA1FBB
:10016000BB1F880F991FAA1FBB1F842B952BA62B83
:10017000B72B22952F70BC01CD01622B25B12460D5
:1001800025B925B12B7F25B928E82EBD0DB407FE72
:10019000FDCF2EB51EBC0DB407FEFDCF5EB51EBC57
:1001A0000DB407FEFDCF0EB51EBC0DB407FEFDCF8E
:1001B0004EB51EBC0DB407FEFDCFCEB51EBC0DB4B2
:1001C00007FEFDCF2EB41EBC0DB407FEFDCF2EB52D
:1001D00035B1346035B910E0102F0027052BD0E081
:1001E000DC2FCC27C42B022E000C330B322F2227FE
:1001F000022C000C3308222A332A0E94DF026B01F2
:100200007C0120E030E040E858E30E946D034B01A0
:100210005C01B80180E090E00E94DF022B013C010C
:1002200020E030E040E85AE30E946D039B01AC01FE
:10023000C501B4010E94CA014B015C01BE0180E00E
:1002400090E00E94DF029B01AC01C501B4010E9455
:100250006D034B015C0120E030E040E057E3C70153
:10026000B6010E946D036B017C0120E030E040E0AC
:1002700059E3C301B2010E946D039B01AC01C701A8
:10028000B6010E94CA016B017C01B101330C880BDD
:10029000990B0E94E1029B01AC01C701B6010E94CB
:1002A0006D039B01AC01C501B4010E94CB0120E0AC
:1002B00030E040EA55E40E94370220E030E048ECAC
:1002C00052E40E946D030E94A902CB0164E670E033
:1002D0000E94DA03EC01072E000C880B990B0E9498
:1002E000AD018EE20E949901CA30D1051CF480E371
:1002F0000E949901BE01DD0F880B990B0E94AD0190
:100300008AE00E9499012FEF83ED90E32150804015
:100310009040E1F700C00000CCCE1092C50087E607
:100320008093C40088E08093C10086E08093C2007F
:1003300008959091C00095FFFCCF8093C60008956A
:10034000CF93DF93EC0103C021960E94990188812D
:100350008111FACFDF91CF910895CF93DF93CDB77D
:10036000DEB72C970FB6F894DEBF0FBECDBF2AE0E4
:10037000AE014F5F5F4F0E940204CE0101960E94C2
:10038000A0012C960FB6F894DEBF0FBECDBFDF9153
:10039000CF9108955058BB27AA270E94E2010C94E0
:1003A00033030E94250338F00E942C0320F039F417
:1003B0009F3F19F426F40C9422030EF4E095E7FB1A
:1003C0000C941C03E92F0E94440358F3BA176207E8
:1003D00073078407950720F079F4A6F50C9466035B
:1003E0000EF4E0950B2EBA2FA02D0B01B901900150
:1003F0000C01CA01A0011124FF27591B99F0593F94
:1004000050F4503E68F11A16F040A22F232F342FDB
:100410004427585FF3CF469537952795A795F04029
:100420005395C9F77EF41F16BA0B620B730B840B3E
:10043000BAF09150A1F0FF0FBB1F661F771F881FF6
:10044000C2F70EC0BA0F621F731F841F48F487954E
:1004500077956795B795F7959E3F08F0B0CF939540
:10046000880F08F09927EE0F9795879508950E94B9
:100470004B020C9433030E942C0358F00E94250376
:1004800040F029F45F3F29F00C941C0351110C94A7
:1004900067030C9422030E94440368F39923B1F389
:1004A000552391F3951B550BBB27AA27621773079A
:1004B000840738F09F5F5F4F220F331F441FAA1F2E
:1004C000A9F335D00E2E3AF0E0E832D091505040EA
:1004D000E695001CCAF72BD0FE2F29D0660F771F98
:1004E000881FBB1F261737074807AB07B0E809F07E
:1004F000BB0B802DBF01FF2793585F4F3AF09E3F03
:10050000510578F00C941C030C9467035F3FE4F3EF
:10051000983ED4F3869577956795B795F7959F5F45
:10052000C9F7880F911D9695879597F90895E1E091
:10053000660F771F881FBB1F621773078407BA07F0
:1005400020F0621B730B840BBA0BEE1F88F7E0954B
:1005500008950E94B0026894B1110C946703089545
:100560000E944C0388F09F5798F0B92F9927B751F4
:10057000B0F0E1F0660F771F881F991F1AF0BA9547
:10058000C9F714C0B13091F00E946603B1E008953C
:100590000C946603672F782F8827B85F39F0B93F2E
:1005A000CCF3869577956795B395D9F73EF49095FA
:1005B0008095709561957F4F8F4F9F4F0895E89478
:1005C00009C097FB3EF490958095709561957F4F9B
:1005D0008F4F9F4F9923A9F0F92F96E9BB27939549
:1005E000F695879577956795B795F111F8CFFAF459
:1005F000BB0F11F460FF1BC06F5F7F4F8F4F9F4F8A
:1006000016C0882311F096E911C0772321F09EE8E7
:10061000872F762F05C0662371F096E8862F70E04D
:1006200060E02AF09A95660F771F881FDAF7880F27
:100630009695879597F9089597F99F6780E870E0F8
:1006400060E008959FEF80EC089500240A94161648
:10065000170618060906089500240A9412161306B0
:10066000140605060895092E0394000C11F488233E
:1006700052F0BB0F40F4BF2B11F460FF04C06F5F5A
:100680007F4F8F4F9F4F089557FD9058440F551F30
:1006900059F05F3F71F04795880F97FB991F61F004
:1006A0009F3F79F087950895121613061406551F7B
:1006B000F2CF4695F1DF08C0161617061806991FE7
:1006C000F1CF86957105610508940895E894BB27DC
:1006D00066277727CB0197F908950E9480030C9431
:1006E00033030E94250338F00E942C0320F0952349
:1006F00011F00C941C030C94220311240C94670336
:100700000E94440370F3959FC1F3950F50E0551F6D
:10071000629FF001729FBB27F00DB11D639FAA2756
:10072000F00DB11DAA1F649F6627B00DA11D661FA5
:10073000829F2227B00DA11D621F739FB00DA11DC6
:10074000621F839FA00D611D221F749F3327A00D80
:10075000611D231F849F600D211D822F762F6A2F1C
:1007600011249F5750409AF0F1F088234AF0EE0F81
:10077000FF1FBB1F661F771F881F91505040A9F7AE
:100780009E3F510580F00C941C030C9467035F3F5F
:10079000E4F3983ED4F3869577956795B795F795EA
:1007A000E7959F5FC1F7FE2B880F911D9695879562
:1007B00097F9089597FB072E16F4009407D077FD5C
:1007C00009D00E94EE0307FC05D03EF49095819578
:1007D0009F4F0895709561957F4F0895AA1BBB1B8D
:1007E00051E107C0AA1FBB1FA617B70710F0A61B31
:1007F000B70B881F991F5A95A9F780959095BC0152
:10080000CD010895BB272A3051F4992342F4BDE26B
:1008100090958095709561957F4F8F4F9F4F0C9469
:100820001204BB27FA01A62F6217710581059105F5
:10083000330B30FB66F0AA27660F771F881F991FBE
:10084000AA1FA21710F0A21B63953850A9F7A05D4C
:10085000AA3308F0A95DA19336F7B111B1931082C4
:10086000CA010C943304DC01FC01672F71917723DA
:10087000E1F7329704C07C916D9370836291AE175B
:0A088000BF07C8F30895F894FFCFF6
:00000001FF
