:100000000C9434000C9449000C9449000C94490061
:100010000C9449000C9449000C9449000C9449003C
:100020000C9449000C9449000C9449000C9449002C
:100030000C9449000C9449000C9449000C9449001C
:100040000C9449000C9449000C9449000C9449000C
:100050000C9449000C9449000C9449000C944900FC
:100060000C9449000C94490011241FBECFEFD8E036
:10007000DEBFCDBF11E0A0E0B1E0E4E0F9E002C0F6
:1000800005900D92AC35B107D9F70E944B000C9446
:1000900080040C940000CF93DF93CDB7DEB7E297D6
:1000A0000FB6F894DEBF0FBECDBF0E94F8000E94CD
:1000B00099001A821982FE01339680E3DF011D92B6
:1000C0008A95E9F762E3CE0101960E945901CE01BB
:1000D00001960E94AF00BFEF21EE84E0B1502040B6
:1000E0008040E1F700C00000EDCFDC0160E070E08F
:1000F00020E030E016C0492F50E0405351099053A2
:100100009A30A8F4C901880F991F220F331F220FBC
:10011000331F220F331F280F391F240F351F6F5F26
:100120007F4FFD01E60FF71F90819111E4CFC901C8
:10013000089585B5877F85BD84B5836084BD84B50A
:10014000806884BD84B58F7B84BD8AB180648AB9A0
:1001500085B58B7F85BD85B5836085BD0895CF93BB
:10016000DF93EC016DE071E00E948D01892B31F489
:100170008FEF87BD80E091E00E941F016DE171E08B
:10018000CE010E948D01892B29F417BC80E191E0FA
:100190000E941F01888180538A3038F5CE010E9469
:1001A0007500EC018536910528F081E291E00E940E
:1001B0001F011BC08FEF8C9F90018D9F300D11246C
:1001C0003695279536952795ABE7B4E10E947E01D9
:1001D0009695879587BD84E491E00E941F01CE012A
:1001E0000E942C0185E20E941101DF91CF910895B8
:1001F00087E690E09093C5008093C400E1ECF0E0C6
:1002000080818861808380818B7F8083E2ECF0E055
:10021000808186608083E0ECF0E080818D7F808348
:1002200008959091C00095FFFCCF8093C60008957B
:100230008091C0008823E4F78091C6000895CF9391
:10024000DF93EC0103C00E94110121968881811186
:10025000FACFDF91CF9108950F931F93CF93DF9340
:10026000CDB7DEB72A970FB6F894DEBF0FBECDBF6D
:100270009F938F9389E591E09F938F938E010F5FFA
:100280001F4F1F930F930E949601C8010E941F01E8
:100290000F900F900F900F900F900F902A960FB61F
:1002A000F894DEBF0FBECDBFDF91CF911F910F91AC
:1002B00008950F931F93CF93DF938C01D62FC0E047
:1002C0000E9418018A3089F08D3079F04C2F50E06F
:1002D0002D2F30E0215031094217530734F4F80133
:1002E000EC0FF11D8083CF5FEBCFF801EC0FF11D18
:1002F0001082DF91CF911F910F910895A29FB001BD
:10030000B39FC001A39F700D811D1124911DB29F49
:10031000700D811D1124911D0895FB01DC018D914B
:10032000019080190110D9F3990B0895AEE0B0E067
:10033000ECE9F1E00C9457040D891E8986E08C836A
:100340001A8309838FEF9FE79E838D83AE01475EFB
:100350005F4F6F89788DCE0101960E94B801EF81C1
:10036000F885E00FF11F10822E96E4E00C947304E0
:10037000ABE0B0E0EEEBF1E00C9449046C017B01E2
:100380008A01FC0117821682838181FFCCC1CE01D4
:1003900001963C01F6019381F70193FD859193FF4E
:1003A00081917F01882309F4BAC1853239F493FD24
:1003B000859193FF81917F01853229F4B60190E008
:1003C0000E94AF03E7CF912C212C312CFFE1F315D4
:1003D000D8F08B3279F038F4803279F08332A1F49E
:1003E000232D20611DC08D3261F0803369F4232DEF
:1003F000216016C0832D8260382EE32DE4603E2EEE
:100400002AC0F32DF8601DC037FC2DC020ED280F49
:100410002A3040F08E32B9F436FC81C1232D20649D
:10042000322E19C036FE06C08AE0989E200D112497
:10043000922E11C0EAE02E9E200D1124222EF32DC3
:10044000F0623F2E08C08C3621F4832D8068382E50
:1004500002C0883641F4F70193FD859193FF8191A5
:100460007F018111B3CF982F9F7D9554933028F44D
:100470000C5F1F4F9FE399830DC0833631F08337A4
:1004800071F0833509F059C021C0F801808189835A
:100490000E5F1F4F88248394912C530113C02801B1
:1004A000F2E04F0E511CF801A080B18036FE03C06F
:1004B000692D70E002C06FEF7FEFC5010E94A403B9
:1004C0004C018201F32DFF773F2E16C0280122E058
:1004D000420E511CF801A080B18036FE03C0692D88
:1004E00070E002C06FEF7FEFC5010E9499034C01DD
:1004F000F32DF0683F2E820133FC1BC0822D90E06B
:1005000088169906B0F4B60180E290E00E94AF032D
:100510002A94F4CFF50137FC859137FE81915F0174
:10052000B60190E00E94AF0321102A9421E0821AC4
:1005300091088114910471F7E8C0843611F089366E
:1005400041F5F80137FE07C0608171818281938196
:100550000C5F1F4F08C060817181072E000C880B53
:10056000990B0E5F1F4FF32DFF763F2E97FF09C0AB
:1005700090958095709561957F4F8F4F9F4FF06854
:100580003F2E2AE030E0A3010E94EB03882E86185C
:1005900045C0853731F4232D2F7EB22E2AE030E07E
:1005A00025C0932D997FB92E8F36C1F018F4883568
:1005B00079F0B5C0803719F0883721F0B0C0E92F45
:1005C000E061BE2EB4FE0DC0FB2DF460BF2E09C04D
:1005D00034FE0AC0292F2660B22E06C028E030E083
:1005E00005C020E130E002C020E132E0F801B7FEB2
:1005F00007C060817181828193810C5F1F4F06C0AB
:100600006081718180E090E00E5F1F4FA3010E9426
:10061000EB03882E8618FB2DFF773F2E36FE0DC08C
:10062000232D2E7FA22E891458F434FE0BC032FCE9
:1006300009C0832D8E7EA82E05C0B82CA32C03C024
:10064000B82C01C0B92CA4FE0FC0FE01E80DF11DAD
:100650008081803321F49A2D997EA92E09C0A2FEB3
:1006600006C0B394B39404C08A2D867809F0B3947D
:10067000A3FC11C0A0FE06C0B21488F4280C922C72
:100680009B180EC0B21460F4B60180E290E00E94A4
:10069000AF03B394F7CFB21418F42B1802C0982C00
:1006A000212CA4FE10C0B60180E390E00E94AF03AD
:1006B000A2FE17C0A1FC03C088E790E002C088E555
:1006C00090E0B6010CC08A2D867859F0A1FE02C0D8
:1006D0008BE201C080E2A7FC8DE2B60190E00E94AF
:1006E000AF03891438F4B60180E390E00E94AF03B1
:1006F0009A94F7CF8A94F301E80DF11D8081B60139
:1007000090E00E94AF038110F5CF222009F442CE81
:10071000B60180E290E00E94AF032A94F6CFF60182
:100720008681978102C08FEF9FEF2B96E2E10C94B8
:100730006504FC010590615070400110D8F7809568
:1007400090958E0F9F1F0895FC016150704001909D
:100750000110D8F7809590958E0F9F1F08950F93E5
:100760001F93CF93DF93FB01238121FD03C08FEF04
:100770009FEF2CC022FF16C046815781248135810E
:100780004217530744F4A081B1819D012F5F3F4F71
:10079000318320838C93268137812F5F3F4F3783AE
:1007A000268314C08B01EC01FB010084F185E02D50
:1007B0000995892BE1F6D80116968D919C91179792
:1007C000019617969C938E931697CE01DF91CF9149
:1007D0001F910F910895FA01AA27283051F1203175
:1007E00081F1E8946F936E7F6E5F7F4F8F4F9F4FC5
:1007F000AF4FB1E03ED0B4E03CD0670F781F891F07
:100800009A1FA11D680F791F8A1F911DA11D6A0FD4
:10081000711D811D911DA11D20D009F468943F9187
:100820002AE0269F11243019305D3193DEF6CF0186
:100830000895462F4770405D4193B3E00FD0C9F74C
:10084000F6CF462F4F70405D4A3318F0495D31FDB9
:100850004052419302D0A9F7EACFB4E0A69597950C
:10086000879577956795BA95C9F7009761057105E2
:1008700008959B01AC010A2E06945795479537952C
:100880002795BA95C9F7620F731F841F951FA01D86
:1008900008952F923F924F925F926F927F928F9224
:1008A0009F92AF92BF92CF92DF92EF92FF920F93FF
:1008B0001F93CF93DF93CDB7DEB7CA1BDB0B0FB609
:1008C000F894DEBF0FBECDBF09942A8839884888C6
:1008D0005F846E847D848C849B84AA84B984C8845C
:1008E000DF80EE80FD800C811B81AA81B981CE0F53
:1008F000D11D0FB6F894DEBF0FBECDBFED01089538
:04090000F894FFCF99
:100904000A0D4C4544206973206E6F77204F4E00CA
:100914000A0D4C4544206973206E6F77204F46467C
:10092400000A0D456E7465726564206E756D6265AE
:100934007220697320496E76616C696420283E31A7
:10094400303029000A0D4272696768746E657373EA
:0C0954002073657420746F20002575006E
:00000001FF
