:100000000C9434000C943E000C943E000C943E0082
:100010000C943E000C943E000C943E000C943E0068
:100020000C943E000C943E000C943E000C943E0058
:100030000C943E000C943E000C943E000C943E0048
:100040000C943E000C943E000C943E000C943E0038
:100050000C943E000C943E000C943E000C943E0028
:100060000C943E000C943E0011241FBECFEFD8E04C
:10007000DEBFCDBF0E9479000C9483000C94000079
:100080008BB188608BB98BB18F7E8BB98BB18F7D33
:100090008BB92FEF83E294EF215080409040E1F73D
:1000A00000C0000008958BB1877F8BB98BB1806150
:1000B0008BB98BB18F7D8BB92FEF8BE792E92150F4
:1000C00080409040E1F700C0000008958BB1877F29
:1000D0008BB98BB18F7E8BB98BB180628BB92FEFCF
:1000E00083E294EF215080409040E1F700C000008F
:1000F00008958AB188638AB90E9440000E94530023
:0A0100000E946600F9CFF894FFCFCB
:00000001FF
