S016000074696D6572305F4354436D6F64652E73726563DF
S11300000C9434000C943E000C943E000C943E007E
S11300100C943E000C943E000C943E000C943E0064
S11300200C943E000C943E000C943E000C943E0054
S11300300C943E000C943E000C943E000C943E0044
S11300400C943E000C943E000C943E000C943E0034
S11300500C943E000C943E000C943E000C943E0024
S11300600C943E000C943E0011241FBECFEFD8E048
S1130070DEBFCDBF0E944F000C9468000C940000BA
S113008020E030E007C0A99BFECF85B3826085BB2A
S11300902F5F3F4F2C3281E03807ACF3089516BC34
S11300A08CE987BD84B58E7F84BD84B5826084BDB0
S11300B085B5856085BD85B58D7F85BD84B180623C
S11300C084B995B180E2892785B90E944000F9CFAF
S10700D0F894FFCFCE
S9030000FC
