S00D0000426C696E6B2E7372656327
S11300000C9434000C943E000C943E000C943E007E
S11300100C943E000C943E000C943E000C943E0064
S11300200C943E000C943E000C943E000C943E0054
S11300300C943E000C943E000C943E000C943E0044
S11300400C943E000C943E000C943E000C943E0034
S11300500C943E000C943E000C943E000C943E0024
S11300600C943E000C943E0011241FBECFEFD8E048
S1130070DEBFCDBF0E9440000C9458000C940000D9
S113008084E08AB984E08BB92FEF83ED90E32150AB
S113009080409040E1F700C000001BB82FEF83EDD3
S11300A090E3215080409040E1F700C00000EACF87
S10700B0F894FFCFEE
S9030000FC
