S01800004443206D6F746F7220776F726B696E672E7372656313
S11300000C9434000C943E000C943E000C943E007E
S11300100C943E000C943E000C943E000C943E0064
S11300200C943E000C943E000C943E000C943E0054
S11300300C943E000C943E000C943E000C943E0044
S11300400C943E000C943E000C943E000C943E0034
S11300500C943E000C943E000C943E000C943E0024
S11300600C943E000C943E0011241FBECFEFD8E048
S1130070DEBFCDBF0E9440000C9480000C940000B1
S11300808AB184628AB98BB184608BB98BB18F7D5C
S11300908BB92FEF83E294EF215080409040E1F739
S11300A000C000008BB18B7F8BB98BB18F7D8BB976
S11300B02FEF83ED90E3215080409040E1F700C0A2
S11300C000008BB18B7F8BB98BB180628BB92FEF22
S11300D083E294EF215080409040E1F700C000009B
S11300E08BB18B7F8BB98BB18F7D8BB92FEF83ED68
S11300F090E3215080409040E1F700C00000C3CF5E
S1070100F894FFCF9D
S9030000FC
