:100000000C9434000C943E000C943E000C943E0082
:100010000C943E000C943E000C943E000C943E0068
:100020000C943E000C943E000C943E000C943E0058
:100030000C943E000C943E000C943E000C943E0048
:100040000C943E000C943E000C943E000C943E0038
:100050000C943E000C943E000C943E000C943E0028
:100060000C943E000C943E0011241FBECFEFD8E04C
:10007000DEBFCDBF0E9440000C947E000C940000B7
:100080008AB180628AB98AB180648AB916BC84B5A3
:10009000816084BD84B58D7F84BD84B5806884BD56
:1000A00084B58F7B84BD84B5806284BD84B58F7E2A
:1000B00084BD85B5836085BD85B58B7F85BD8FEF9C
:1000C00088BD80E090E008C087BDEFE1FEE4319795
:1000D000F1F700C0000001968F3F9105ACF38FEF60
:1000E00090E008C087BDEFE3FCE93197F1F700C06D
:1000F0000000019718161906ACF3E3CFF894FFCF70
:00000001FF
