:100000000C9434000C9448000C9446000C94460068
:100010000C9446000C9446000C9446000C94460048
:100020000C9446000C9446000C9446000C94460038
:100030000C9446000C9446000C9446000C94460028
:100040000C9446000C9446000C9446000C94460018
:100050000C9446000C9446000C9446000C94460008
:100060000C9446000C94460011241FBECFEFD8E03C
:10007000DEBFCDBF21E0A0E0B1E001C01D92A13004
:10008000B207E1F70E9494000C9423010C94000045
:100090001F920F920FB60F9211248F9381E08093DD
:1000A00000018F910F900FBE0F901F90189585B192
:1000B000806285B985B18F7E85B985B1877F85B925
:1000C000089585B18F7D85B985B1806185B985B188
:1000D000877F85B9089585B18F7D85B985B18F7E7C
:1000E00085B985B1886085B908958BB180628BB977
:1000F0008BB18F7B8BB908958BB18F7D8BB98BB111
:1001000080648BB908958BB18F7D8BB98BB18F7B58
:100110008BB9089585B18F7D85B985B18F7E85B9FD
:1001200085B1877F85B908958DB381608DBBE9E680
:10013000F0E08081836080838CB381608CBB84B16C
:10014000886384B98AB180668AB978940E94610014
:100150002FEF8BE792E9215080409040E1F700C0FB
:1001600000000E946B002FEF8BE792E92150804046
:100170009040E1F700C000000E9461002FEF8BE784
:1001800092E9215080409040E1F700C000000E94B9
:1001900057002FEF8BE792E9215080409040E1F724
:1001A00000C0000080910001813081F60E94610052
:1001B0002FEF8BE792E9215080409040E1F700C09B
:1001C00000000E9475000E9457002FEF83E294EF19
:1001D000215080409040E1F700C000000E9457008D
:1001E0000E9483002FEF83E294EF215080409040E3
:1001F000E1F700C000000E947C000E9457002FEF32
:1002000083E294EF215080409040E1F700C000006D
:100210000E9461000E9483002FEF8BE792E921503A
:1002200080409040E1F700C000000E948A002FEF5C
:1002300087EA91E6215080409040E1F700C000003D
:0A0240001092000183CFF894FFCF65
:00000001FF
