S0220000547261666669635F7369676E616C5F616E645F44436D6F746F722E73726563BD
S11300000C9434000C9455000C9446000C94460057
S11300100C9446000C9446000C9446000C94460044
S11300200C9446000C9446000C9446000C94460034
S11300300C9446000C9446000C9446000C94460024
S11300400C9446000C9446000C9446000C94460014
S11300500C9446000C9446000C9446000C94460004
S11300600C9446000C94460011241FBECFEFD8E038
S1130070DEBFCDBF21E0A0E0B1E001C01D92A13000
S1130080B207E1F70E9497000C9404010C9400005D
S113009006C0A99BFECF85B3826085BBC9019C01C4
S11300A021503109892BA9F708951F920F920FB699
S11300B00F9211248F9381E0809300018F910F9010
S11300C00FBE0F901F90189585B1806285B985B1D8
S11300D08F7E85B985B1877F85B9089585B18F7D78
S11300E085B985B1806185B985B1877F85B9089562
S11300F085B18F7D85B985B18F7E85B985B18860DD
S113010085B908958BB180628BB98BB18F7B8BB924
S113011008958BB18F7D8BB98BB180648BB90895B1
S11301208BB18F7D8BB98BB18F7B8BB9089516BC46
S113013084B58E7F84BD84B5826084BD85B58360BB
S113014085BD85B58B7F85BD89EF87BD8DB3816006
S11301508DBBE9E6F0E08081836080838CB38160AD
S11301608CBB84B1886384B98AB180668AB9789477
S113017080910001813079F50E9482000E94640020
S113018080E797E10E9448000E9464000E9490006A
S113019088E893E10E9448000E9489000E9464005C
S11301A080E797E10E9448000E9490000E946E0040
S11301B088E893E10E9448000E94780088EB9BE065
S11301C00E9448000E946E0088EB9BE00E94480059
S11301D010920001CDCF0E94640088EB9BE00E9446
S11301E048000E946E0088EB9BE00E9448000E9439
S11301F0780088EB9BE00E9448000E946E0088EB28
S10F02009BE00E944800B4CFF894FFCFAC
S9030000FC
