S020000054696D6572305F776974686F75745F7072657363616C61722E7372656344
S11300000C9434000C943E000C943E000C943E007E
S11300100C943E000C943E000C943E000C943E0064
S11300200C943E000C943E000C943E000C943E0054
S11300300C943E000C943E000C943E000C943E0044
S11300400C943E000C943E000C943E000C943E0034
S11300500C943E000C943E000C943E000C943E0024
S11300600C943E000C943E0011241FBECFEFD8E048
S1130070DEBFCDBF0E9464000C946E000C9400009F
S113008016BC84B58E7F84BD84B58D7F84BD85B553
S11300908D7F85BD85B58B7F85BD85B5816085BD2B
S11300A040E050E0BA0109C0A89BFECF85B381604F
S11300B085BB4F5F5F4F6F4F7F4F443284EF5807CC
S11300C0610571058CF3089584B1806284B995B19A
S11300D080E2892785B90E944000F9CFF894FFCFC8
S9030000FC
