S0130000736572766F5F6D6F746F722E7372656352
S11300000C9434000C943E000C943E000C943E007E
S11300100C943E000C943E000C943E000C943E0064
S11300200C943E000C943E000C943E000C943E0054
S11300300C943E000C943E000C943E000C943E0044
S11300400C943E000C943E000C943E000C943E0034
S11300500C943E000C943E000C943E000C943E0024
S11300600C943E000C943E0011241FBECFEFD8E048
S1130070DEBFCDBF0E9471000C94E0000C94000020
S1130080ECE7F0E080818F778083808180648083D7
S11300908081807F8083EAE7F0E0808187608083CD
S11300A08081806880830895EAE7F0E0808180643D
S11300B0808380917A0086FDFCCF809178009091B6
S11300C0790008959C01A8EEB3E00E94D1002FEFBF
S11300D033E040E050E00E94AF00C90188519C4FDA
S11300E008950E9482000E9440000E9454000E94D1
S11300F062000E94A8008FE19EE40197F1F700C01E
S11301000000F3CFE1E8F0E08081806180838081AA
S1130110877F8083A0E8B0E08C9182608C938C917F
S11301208E7F8C938C9180688C938C918F7B8C9335
S113013084B1826084B98FE19EE4909387008093B8
S1130140860080818A7F8083808182608083089595
S1130150880F991F90938900809388000895A1E2E5
S11301601A2EAA1BBB1BFD010DC0AA1FBB1FEE1F2D
S1130170FF1FA217B307E407F50720F0A21BB30B78
S1130180E40BF50B661F771F881F991F1A9469F7F4
S113019060957095809590959B01AC01BD01CF0150
S11301A00895A29FB001B39FC001A39F700D811D4C
S11301B01124911DB29F700D811D1124911D08956C
S10701C0F894FFCFDD
S9030000FC
