S01C00006F6E657761795F747261666669635F6C696768742E73726563C0
S11300000C9434000C943E000C943E000C943E007E
S11300100C943E000C943E000C943E000C943E0064
S11300200C943E000C943E000C943E000C943E0054
S11300300C943E000C943E000C943E000C943E0044
S11300400C943E000C943E000C943E000C943E0034
S11300500C943E000C943E000C943E000C943E0024
S11300600C943E000C943E0011241FBECFEFD8E048
S1130070DEBFCDBF0E947F000C9493000C9400005F
S1130080BC0120E030E007C0A89BFECF95B391608F
S113009095BB2F5F3F4F9DE3969FA001979F500D07
S11300A011242417350784F3089585B1846085B934
S11300B085B1877F85B985B18F7E85B98AE090E067
S11300C00E944000089585B18B7F85B985B1886011
S11300D085B985B18F7E85B983E090E00E944000A8
S11300E0089585B18B7F85B985B1877F85B985B141
S11300F0806185B98AE090E00E944000089516BCB2
S113010084B58E7F84BD85B5856085BD85B58D7FBD
S113011085BD84B18C6184B90E9471000E94630022
S10D01200E945500F9CFF894FFCFB8
S9030000FC
