S01400006D6F746F725F7377697463682E73726563EE
S11300000C9434000C943E000C943E000C943E007E
S11300100C943E000C943E000C943E000C943E0064
S11300200C943E000C943E000C943E000C943E0054
S11300300C943E000C943E000C943E000C943E0044
S11300400C943E000C943E000C943E000C943E0034
S11300500C943E000C943E000C943E000C943E0024
S11300600C943E000C943E0011241FBECFEFD8E048
S1130070DEBFCDBF0E9440000C9469000C940000C8
S11300808AB18B7F8AB98AB18F7D8AB984B1806243
S113009084B984B1806184B94A9B09C04D9907C071
S11300A085B1806185B985B18F7D85B9F5CF4D9BCB
S11300B009C04A9907C085B18F7E85B985B1806230
S11300C085B9EACF85B18F7E85B985B18F7D85B934
S10900D0E3CFF894FFCF1A
S9030000FC
